:020000040800F2
:1000000000000120ED1600085116000857160008E0
:100010005D1600086316000869160008000000005D
:100020000000000000000000000000006F16000843
:100030007D160008000000008B16000899160008C5
:100040003D1700083D1700083D1700083D17000840
:100050003D1700083D1700083D170008A5160008C9
:100060003D1700083D1700083D1700083D17000820
:100070003D1700083D1700083D1700083D17000810
:100080003D1700083D1700083D170008000000005C
:100090000000000000000000000000003D17000804
:1000A0003D1700083D1700083D1700083D170008E0
:1000B0003D1700083D1700083D1700083D170008D0
:1000C0003D1700083D1700083D1700083D170008C0
:1000D0003D170008B51600083D1700080000000095
:1000E0003D1700083D1700083D17000800000000FC
:1000F0000000000000000000000000003D170008A4
:10010000000000003D1700083D1700083D170008DB
:1001100000000000000000000000000000000000DF
:100120003D1700083D1700083D1700083D1700085F
:100130003D17000800000000000000000000000063
:100140000000000000000000000000003D17000853
:100150003D1700083D1700083D1700083D1700082F
:100160003D1700083D1700080000000000000000D7
:10017000000000000000000000000000000000007F
:10018000000000003D170008000000000000000013
:040190003D1700080F
:1001980010B5054C237833B9044B13B10448AFF3B9
:1001A80000800123237010BD6C00002000000000B7
:1001B8005846000808B5034B1BB103490348AFF381
:1001C800008008BD000000007000002058460008AC
:1001D80081F0004102E000BF83F0004330B54FEAF0
:1001E80041044FEA430594EA050F08BF90EA020F5D
:1001F8001FBF54EA000C55EA020C7FEA645C7FEAF0
:10020800655C00F0E2804FEA5454D4EB5555B8BF12
:100218006D420CDD2C4480EA020281EA030382EA83
:10022800000083EA010180EA020281EA0303362D15
:1002380088BF30BD11F0004F4FEA01314FF4801CE8
:100248004CEA113102D0404261EB410113F0004FFA
:100258004FEA03334CEA133302D0524263EB4303B1
:1002680094EA050F00F0A780A4F10104D5F1200E4F
:100278000DDB02FA0EFC22FA05F2801841F10001AA
:1002880003FA0EF2801843FA05F359410EE0A5F17E
:1002980020050EF1200E012A03FA0EFC28BF4CF0AF
:1002A800020C43FA05F3C01851EBE37101F0004565
:1002B80007D54FF0000EDCF1000C7EEB00006EEB72
:1002C8000101B1F5801F1BD3B1F5001F0CD34908FC
:1002D8005FEA30004FEA3C0C04F101044FEA445253
:1002E80012F5800F80F09A80BCF1004F08BF5FEADA
:1002F800500C50F1000041EB045141EA050130BDBA
:100308005FEA4C0C404141EB0101013C28BFB1F5CB
:10031800801FE9D291F0000F04BF01460020B1FA16
:1003280081F308BF2033A3F10B03B3F120020CDAE9
:100338000C3208DD02F1140CC2F10C0201FA0CF0C7
:1003480021FA02F10CE002F11402D8BFC2F1200C2C
:1003580001FA02F120FA0CFCDCBF41EA0C019040E2
:10036800E41AA2BF01EB0451294330BD6FEA04042B
:100378001F3C1CDA0C340EDC04F11404C4F1200216
:1003880020FA04F001FA02F340EA030021FA04F328
:1003980045EA030130BDC4F10C04C4F1200220FA7F
:1003A80002F001FA04F340EA0300294630BD21FABD
:1003B80004F0294630BD94F0000F83F4801306BF83
:1003C80081F480110134013D4EE77FEA645C18BF77
:1003D8007FEA655C29D094EA050F08BF90EA020F0E
:1003E80005D054EA000C04BF1946104630BD91EA06
:1003F800030F1EBF0021002030BD5FEA545C05D109
:100408004000494128BF41F0004130BD14F5800447
:100418003CBF01F5801130BD01F0004545F0FE41BB
:1004280041F470014FF0000030BD7FEA645C1ABFF0
:10043800194610467FEA655C1CBF0B46024650EA27
:10044800013406BF52EA033591EA030F41F4002153
:1004580030BD00BF90F0000F04BF0021704730B5D9
:100468004FF4806404F132044FF000054FF00001AE
:1004780050E700BF90F0000F04BF0021704730B56F
:100488004FF4806404F1320410F0004548BF404244
:100498004FF000013EE700BF42004FEAE2014FEA99
:1004A80031014FEA02701FBF12F07F4393F07F4F74
:1004B80081F06051704732F07F4208BF704793F077
:1004C8007F4F04BF41F40021704730B54FF460748A
:1004D80001F0004521F000411CE700BF50EA01028D
:1004E80008BF704730B54FF000050AE050EA010236
:1004F80008BF704730B511F0004502D5404261EBA6
:1005080041014FF4806404F132045FEA915C3FF4E6
:10051800D8AE4FF003025FEADC0C18BF03325FEA83
:10052800DC0C18BF033202EBDC02C2F1200300FA34
:1005380003FC20FA02F001FA03FE40EA0E0021FA59
:1005480002F11444BDE600BF70B54FF0FF0C4CF447
:10055800E06C1CEA11541DBF1CEA135594EA0C0FF9
:1005680095EA0C0F00F0DEF82C4481EA030621EA34
:100578004C5123EA4C5350EA013518BF52EA03356F
:1005880041F4801143F4801338D0A0FB02CE4FF021
:100598000005E1FB02E506F00042E0FB03E54FF051
:1005A8000006E1FB03569CF0000F18BF4EF0010E49
:1005B800A4F1FF04B6F5007F64F5407404D25FEA45
:1005C8004E0E6D4146EB060642EAC62141EA5551F8
:1005D8004FEAC52040EA5E504FEACE2EB4F1FD0C3A
:1005E80088BFBCF5E06F1ED8BEF1004F08BF5FEAB8
:1005F800500E50F1000041EB045170BD06F000466A
:1006080046EA010140EA020081EA0301B4EB5C0416
:10061800C2BFD4EB0C0541EA045170BD41F480110E
:100628004FF0000E013C00F3AB8014F1360FDEBF33
:10063800002001F0004170BDC4F10004203C35DA0F
:100648000C341BDC04F11404C4F1200500FA05F392
:1006580020FA04F001FA05F240EA020001F0004233
:1006680021F0004110EBD37021FA04F642EB0601A9
:100678005EEA430E08BF20EAD37070BDC4F10C04D3
:10068800C4F1200500FA04F320FA05F001FA04F297
:1006980040EA020001F0004110EBD37041F1000183
:1006A8005EEA430E08BF20EAD37070BDC4F120058E
:1006B80000FA05F24EEA020E20FA04F301FA05F2F6
:1006C80043EA020321FA04F001F0004121FA04F29E
:1006D80020EA020000EBD3705EEA430E08BF20EA6E
:1006E800D37070BD94F0000F0FD101F000464000A8
:1006F80041EB010111F4801F08BF013CF7D041EA2A
:10070800060195F0000F18BF704703F0004652002D
:1007180043EB030313F4801F08BF013DF7D043EAFE
:100728000603704794EA0C0F0CEA135518BF95EAB4
:100738000C0F0CD050EA410618BF52EA4306D1D13B
:1007480081EA030101F000414FF0000070BD50EA5A
:10075800410606BF1046194652EA430619D094EAE4
:100768000C0F02D150EA013613D195EA0C0F05D1CE
:1007780052EA03361CBF104619460AD181EA030122
:1007880001F0004141F0FE4141F470014FF00000DA
:1007980070BD41F0FE4141F4780170BD70B54FF075
:1007A800FF0C4CF4E06C1CEA11541DBF1CEA1355F5
:1007B80094EA0C0F95EA0C0F00F0A7F8A4EB0504D7
:1007C80081EA030E52EA03354FEA013100F08880CE
:1007D8004FEA03334FF0805545EA131343EA126397
:1007E8004FEA022245EA111545EA10654FEA00264C
:1007F8000EF000419D4208BF964244F1FD0404F505
:10080800407402D25B084FEA3202B61A65EB030560
:100818005B084FEA32024FF480104FF4002CB6EB1D
:10082800020E75EB030E22BFB61A754640EA0C009D
:100838005B084FEA3202B6EB020E75EB030E22BFDD
:10084800B61A754640EA5C005B084FEA3202B6EB1E
:10085800020E75EB030E22BFB61A754640EA9C00DD
:100868005B084FEA3202B6EB020E75EB030E22BFAD
:10087800B61A754640EADC0055EA060E18D04FEA6B
:10088800051545EA16754FEA06164FEAC30343EA0B
:1008980052734FEAC2025FEA1C1CC0D111F4801FD8
:1008A8000BD141EA00014FF000004FF0004CB6E7D1
:1008B80011F4801F04BF01430020B4F1FD0C88BF70
:1008C800BCF5E06F3FF6AFAEB5EB030C04BFB6EB7B
:1008D800020C5FEA500C50F1000041EB045170BD6E
:1008E8000EF0004E4EEA113114EB5C04C2BFD4EB9B
:1008F8000C0541EA045170BD41F480114FF0000E1F
:10090800013C90E645EA060E8DE60CEA135594EA9A
:100918000C0F08BF95EA0C0F3FF43BAF94EA0C0F9D
:100928000AD150EA01347FF434AF95EA0C0F7FF412
:1009380025AF104619462CE795EA0C0F06D152EA66
:1009480003353FF4FDAE1046194622E750EA41064A
:1009580018BF52EA43067FF4C5AE50EA41047FF45B
:100968000DAF52EA43057FF4EBAE12E74A0011D20D
:1009780012F5001211D20DD56FF47873B3EB6252F1
:100988000ED44FEAC12343F0004343EA505323FAFD
:1009980002F070474FF00000704750EA013002D172
:1009A8004FF0FF3070474FF00000704753B94AB915
:1009B800002908BF00281CBF4FF0FF314FF0FF305F
:1009C80000F074B9ADF1080C6DE904CE00F006F83A
:1009D800DDF804E0DDE9022304B070472DE9F047B3
:1009E800089D04468E46002B4DD18A42944669D90B
:1009F800B2FA82F252B101FA02F3C2F1200120FAEE
:100A080001F10CFA02FC41EA030E94404FEA1C483B
:100A1800210CBEFBF8F61FFA8CF708FB16E341EA37
:100A2800034306FB07F199420AD91CEB030306F1BD
:100A3800FF3080F01F81994240F21C81023E6344DE
:100A48005B1AA4B2B3FBF8F008FB103344EA034482
:100A580000FB07F7A7420AD91CEB040400F1FF3397
:100A680080F00A81A74240F207816444023840EAD4
:100A78000640E41B00261DB1D4400023C5E900430D
:100A88003146BDE8F0878B4209D9002D00F0EF8090
:100A98000026C5E9000130463146BDE8F087B3FAC3
:100AA80083F6002E4AD18B4202D3824200F2F980AB
:100AB800841A61EB030301209E46002DE0D0C5E9AE
:100AC800004EDDE702B9FFDEB2FA82F2002A40F0FA
:100AD8009280A1EB0C014FEA1C471FFA8CFE0126FD
:100AE800200CB1FBF7F307FB131140EA01410EFBA1
:100AF80003F0884208D91CEB010103F1FF3802D248
:100B0800884200F2CB804346091AA4B2B1FBF7F041
:100B180007FB101144EA01440EFB00FEA64508D964
:100B28001CEB040400F1FF3102D2A64500F2BB80A1
:100B38000846A4EB0E0440EA03409CE7C6F12007F0
:100B4800B34022FA07FC4CEA030C20FA07F401FA36
:100B580006F31C43F9404FEA1C4900FA06F3B1FBBF
:100B6800F9F8200C1FFA8CFE09FB181140EA014124
:100B780008FB0EF0884202FA06F20BD91CEB0101C1
:100B880008F1FF3A80F08880884240F28580A8F119
:100B980002086144091AA4B2B1FBF9F009FB10116B
:100BA80044EA014100FB0EFE8E4508D91CEB010109
:100BB80000F1FF346CD28E456AD90238614440EAAC
:100BC8000840A0FB0294A1EB0E01A142C846A6462C
:100BD80056D353D05DB1B3EB080261EB0E0101FAB5
:100BE80007F722FA06F3F1401F43C5E90071002612
:100BF8003146BDE8F087C2F12003D8400CFA02FC68
:100C080021FA03F3914001434FEA1C471FFA8CFE77
:100C1800B3FBF7F007FB10360B0C43EA064300FB67
:100C28000EF69E4204FA02F408D91CEB030300F105
:100C3800FF382FD29E422DD9023863449B1B89B2BC
:100C4800B3FBF7F607FB163341EA034106FB0EF345
:100C58008B4208D91CEB010106F1FF3816D28B42F2
:100C680014D9023E6144C91A46EA004638E72E46BE
:100C7800284605E70646E3E61846F8E64B45A9D2B6
:100C8800B9EB020864EB0C0E0138A3E74646EAE725
:100C9800204694E74046D1E7D0467BE7023B6144D3
:100CA80032E7304609E76444023842E7704700BF3C
:100CB80098B500AF00F040FD00F096F900F0D0FACA
:100CC80000F0FCF900F04AFA00F0A0FA984801F0A8
:100CD800FDFD00224FF40061964801F003F904215C
:100CE800954801F09DFE954B1B78012B4AD1924BFC
:100CF8001B6841F64C529A634FF4167000F08EFD53
:100D08008F4B41F64C521A800DE08D4B1A888A4B56
:100D18001B689A63012000F081FD894B1B88323BD8
:100D28009AB2874B1A80864B1B8840F6C3129342AF
:100D3800EBD8844B00221A701DE001217D4801F098
:100D4800EAF84FF40051804801F0E5F8502000F02F
:100D580065FD0121774801F0DEF84FF400517A482B
:100D680001F0D9F8502000F059FD764B1B7801337B
:100D7800DAB2744B1A70734B1B78022BDDD96F4BA8
:100D880000221A706C4B1B6840F6C4129A6301214A
:100D98006E4801F08FF80346002B06D10A230C2277
:100DA8006B496C4802F0FDFB05E00A230C226A49F6
:100DB800684802F0F6FB01224FF400615D4801F03B
:100DC80091F85B4B1B6800225A6200BF584B1B68A6
:100DD8005B6A092BFAD900224FF40061554801F0EB
:100DE80081F800F00FFD03465C4A136000BF4FF422
:100DF8008071504801F05EF80346002B08D1574B2C
:100E08001B6803F10A0400F0FDFC03469C42EED87F
:100E1800474B1B685B6A524A136000F0F3FC0346B9
:100E28004E4A136000BF4FF48071424801F042F807
:100E38000346002B08D0494B1B6803F1320400F02D
:100E4800E1FC03469C42EED8394B1B685B6A454A75
:100E58001360444B1A68424B1B68D31A1846FFF7B5
:100E6800F9FA31A3D3E90023FFF76EFB02460B46DC
:100E7800104619464FF000024FF08043FFF78EFCF2
:100E880002460B4610461946FFF770FD03469AB214
:100E9800354B1A80344B1B88002B20D0324B1B88D3
:100EA8000A2B1CD8314B1B8801339AB22F4B1A805E
:100EB8002F4B00221A802F4B00221A802B4B1B88A5
:100EC800022B7DD90A230C222B49224802F069FB08
:100ED8000A23082229491F4802F063FB70E0224BCD
:100EE8001B880A2B50D9204B1B88122B4CD81F4B20
:100EF80000221A801E4B1B8801339AB21C4B1A80A1
:100F08001C4B00221A801A4B1B88022B58D90A2323
:100F18000E221B490F4802F044FB0A230A221949F2
:100F28000C4802F03EFB4BE09CC420B07268A13F25
:100F38008800002000000240D00000207E01002030
:100F4800000000205D01002000080240000402406B
:100F58002C0000201801002038000020700100201B
:100F680074010020780100207C0100206801002025
:100F78006A0100206C0100202000002044000020AD
:100F8800100000204C000020104B00221A80104B4B
:100F980000221A800F4B1B8801339AB20D4B1A801E
:100FA8000C4B1B88022B0BD90A230C220A490B482D
:100FB80002F0F7FA0A2307220949084802F0F1FA71
:100FC80001220849054802F07EFB8CE668010020F2
:100FD8006A0100206C010020040000201801002094
:100FE800580000205C01002080B594B000AF07F1E4
:100FF800200330220021184603F022FB07F10C03DE
:1010080000221A605A609A60DA601A610023BB6095
:10101800284B1B6C274A43F080531364254B1B6CE9
:1010280003F08053BB60BB6800237B60224B1B68C6
:1010380023F44043204A43F4004313601E4B1B68CB
:1010480003F440437B607B6802233B620123FB621D
:1010580010233B630223BB630023FB6308233B6429
:1010680048237B640223BB640423FB6407F1200349
:10107800184600F083FF0346002B01D000F0ECF97E
:101088000F23FB6002233B6100237B614FF48053F5
:10109800BB610023FB6107F10C030221184601F034
:1010A800E5F90346002B01D000F0D6F900BF503710
:1010B800BD4680BD003802400070004080B586B053
:1010C80000AF07F1080300221A605A609A60DA60DC
:1010D8003B4600221A605A601E4B1F4A1A601D4B7D
:1010E80047225A601B4B00229A601A4B4FF6FF7238
:1010F800DA60184B00221A61164B00225A61154B10
:1011080000229A61134801F091FB0346002B01D09D
:1011180000F0A2F94FF48053BB6007F108031946A9
:101128000C4801F0EFFD0346002B01D000F094F9C4
:1011380000233B6000237B603B461946054802F0CC
:1011480075F90346002B01D000F086F900BF183767
:10115800BD4680BD880000200000014080B58AB0EF
:1011680000AF07F1200300221A605A603B1D0022DD
:101178001A605A609A60DA601A615A619A61224B61
:101188004FF080421A60204B0F225A601E4B0022FB
:101198009A601D4B42F20F72DA601B4B00221A61F3
:1011A800194B00229A61184801F0EAFB0346002B0C
:1011B80001D000F051F900233B6200237B6207F164
:1011C80020031946104802F031F90346002B01D0DC
:1011D80000F042F960237B600023BB600023FB60C2
:1011E80000237B613B1D04221946074801F0C8FC17
:1011F8000346002B01D000F02FF9034800F09CF9BA
:1012080000BF2837BD4680BDD000002080B500AFA4
:10121800114B124A1A60104B4FF416525A600E4B7B
:1012280000229A600C4B0022DA600B4B00221A61F4
:10123800094B0C225A61084B00229A61064B002286
:10124800DA61054802F060F90346002B01D000F08E
:1012580003F900BF80BD00BF180100200010014045
:1012680080B58AB000AF07F1140300221A605A60F3
:101278009A60DA601A6100233B61494B1B6B484A4C
:1012880043F004031363464B1B6B03F004033B61F9
:101298003B690023FB60424B1B6B414A43F08003D0
:1012A80013633F4B1B6B03F08003FB60FB68002359
:1012B800BB603B4B1B6B3A4A43F001031363384B4B
:1012C8001B6B03F00103BB60BB6800237B60344BDE
:1012D8001B6B334A43F002031363314B1B6B03F060
:1012E80002037B607B6800224FF400512D4800F018
:1012F800F9FD002240F601012B4800F0F3FD4FF400
:1013080000537B610123BB610023FB6100233B6227
:1013180007F114031946234800F048FC40F601037E
:101328007B610123BB610023FB6100233B6207F162
:10133800140319461C4800F039FC01237B61002383
:10134800BB610023FB6107F114031946174800F03D
:101358002DFC02237B614FF48813BB610023FB61E2
:1013680007F114031946114800F020FC4FF480736C
:101378007B610023BB610023FB6107F1140319465D
:10138800094800F013FC00220021072000F045FB6B
:10139800072000F05EFB00BF2837BD4680BD00BFB8
:1013A80000380240000802400000024000040240E9
:1013B80080B582B000AF0346FB8000F023FA0346F5
:1013C8000E4A1360FB88022B14D10C4B1A680C4B85
:1013D8001B68D31A0A2B0DD901210A4800F06AFDAF
:1013E8000346012B06D1084B01221A70034B1B68D8
:1013F800034A136000BF0837BD4680BD6401002062
:1014080060010020000402407E01002080B582B007
:1014180000AF78607B681B680B4A93420FD10B4B77
:101428001B78592B03D0094B1B784E2B02D1084B44
:1014380001221A7001220549064802F044F900BF4A
:101448000837BD4680BD00BF001001405C01002088
:101458007E0100201801002080B400AF72B600BFE2
:10146800FEE7000080B483B000AF00237B60104B20
:101478005B6C0F4A43F4804353640D4B5B6C03F47D
:1014880080437B607B6800233B60094B1B6C084AE8
:1014980043F080531364064B1B6C03F080533B608E
:1014A8003B6800BF0C37BD465DF8047B704700BF42
:1014B8000038024080B485B000AF78607B681B6854
:1014C8000B4A93420DD10023FB600A4B5B6C094A1F
:1014D80043F001035364074B5B6C03F00103FB60AB
:1014E800FB6800BF1437BD465DF8047B704700BF3A
:1014F800000001400038024080B485B000AF786039
:101508007B681B68B3F1804F0DD10023FB60094B4A
:101518001B6C084A43F001031364064B1B6C03F071
:101528000103FB60FB6800BF1437BD465DF8047B10
:10153800704700BF0038024080B588B000AF7860BF
:1015480007F10C0300221A605A609A60DA601A6187
:101558007B681B68B3F1804F1DD10023BB60104B23
:101568001B6B0F4A43F0010313630D4B1B6B03F016
:101578000103BB60BB680223FB6002233B610023BD
:101588007B610023BB610123FB6107F10C03194652
:10159800044800F00BFB00BF2037BD4680BD00BFEC
:1015A800003802400000024080B58AB000AF786081
:1015B80007F1140300221A605A609A60DA601A610F
:1015C8007B681B681D4A934234D100233B611C4B46
:1015D8005B6C1B4A43F010035364194B5B6C03F0BC
:1015E80010033B613B690023FB60154B1B6B144ADE
:1015F80043F001031363124B1B6B03F00103FB6001
:10160800FB684FF4C0637B610223BB610023FB616D
:1016180003233B6207237B6207F114031946094839
:1016280000F0C4FA00220021252000F0F6F9252058
:1016380000F00FFA00BF2837BD4680BD00100140FA
:10164800003802400000024080B400AFFEE780B4DA
:1016580000AFFEE780B400AFFEE780B400AFFEE75E
:1016680080B400AFFEE780B400AF00BFBD465DF8B0
:10167800047B704780B400AF00BFBD465DF8047BB3
:10168800704780B400AF00BFBD465DF8047B70476B
:1016980080B500AF00F0A2F800BF80BD80B500AFF4
:1016A800022000F053FC00BF80BD000080B500AFF1
:1016B800024802F039F800BF80BD00BF18010020C1
:1016C80080B400AF064BD3F88830054A43F4700362
:1016D800C2F8883000BFBD465DF8047B704700BF84
:1016E80000ED00E0DFF834D00D480E490E4A002323
:1016F80002E0D458C4500433C4188C42F9D30B4ABE
:101708000B4C002301E013600432A242FBD3FFF725
:10171800D7FF02F071FFFFF7CBFA704700000120F6
:10172800000000206C000020984600086C00002093
:1017380084010020FEE7000080B500AF0E4B1B6857
:101748000D4A43F4007313600B4B1B680A4A43F4B9
:1017580080631360084B1B68074A43F48073136067
:10176800032000F04FF90F2000F008F8FFF77AFE89
:101778000023184680BD00BF003C024080B582B0FF
:1017880000AF7860124B1A68124B1B7819464FF459
:101798007A73B3FBF1F3B2FBF3F3184600F067F981
:1017A8000346002B01D001230EE07B680F2B0AD8DB
:1017B800002279684FF0FF3000F02FF9064A7B6865
:1017C8001360002300E0012318460837BD4680BD9A
:1017D80060000020680000206400002080B400AF92
:1017E800064B1B781A46064B1B681344044A1360C1
:1017F80000BFBD465DF8047B704700BF680000204D
:101808008001002080B400AF034B1B681846BD461A
:101818005DF8047B704700BF8001002080B584B06C
:1018280000AF7860FFF7EEFFB8607B68FB60FB688D
:10183800B3F1FF3F05D00A4B1B781A46FB681344E7
:10184800FB6000BFFFF7DEFF0246BB68D31AFA68E9
:101858009A42F7D800BF00BF1037BD4680BD00BF11
:101868006800002080B485B000AF78607B6803F022
:101878000703FB600C4BDB68BB60BA684FF6FF03DD
:101888001340BB60FB681A02BB68134343F0BF6395
:1018980043F40033BB60044ABB68D36000BF14370D
:1018A800BD465DF8047B704700ED00E080B400AFF2
:1018B800044BDB681B0A03F007031846BD465DF8B6
:1018C800047B704700ED00E080B483B000AF0346AE
:1018D800FB7197F90730002B0BDBFB7903F01F0234
:1018E800074997F907305B09012000FA02F241F82D
:1018F800232000BF0C37BD465DF8047B704700BF4E
:1019080000E100E080B483B000AF03463960FB71AA
:1019180097F90730002B0ADB3B68DAB20C4997F9D4
:1019280007301201D2B20B4483F800230AE03B6867
:10193800DAB20849FB7903F00F03043B1201D2B273
:101948000B441A7600BF0C37BD465DF8047B704720
:1019580000E100E000ED00E080B489B000AFF8607D
:10196800B9607A60FB6803F00703FB61FB69C3F1A8
:101978000703042B28BF0423BB61FB690433062B30
:1019880002D9FB69033B00E000237B614FF0FF3283
:10199800BB6902FA03F3DA43BB681A407B699A40D1
:1019A8004FF0FF317B6901FA03F3D9437B680B40A1
:1019B800134318462437BD465DF8047B7047000082
:1019C80080B582B000AF78607B68013BB3F1807F5F
:1019D80001D301230FE00A4A7B68013B53600F21C2
:1019E8004FF0FF30FFF78EFF054B00229A60044B43
:1019F80007221A60002318460837BD4680BD00BF7D
:101A080010E000E080B582B000AF78607868FFF73A
:101A180029FF00BF0837BD4680BD80B586B000AF3E
:101A28000346B9607A60FB7300237B61FFF73EFFD2
:101A380078617A68B9687869FFF78EFF024697F986
:101A48000F3011461846FFF75DFF00BF1837BD4637
:101A580080BD80B582B000AF0346FB7197F90730AF
:101A68001846FFF731FF00BF0837BD4680BD80B577
:101A780082B000AF78607868FFF7A2FF0346184687
:101A88000837BD4680BD80B584B000AF78607B68FC
:101A98009B6DFB60FFF7B6FEB8607B6893F8353046
:101AA800DBB2022B08D07B6880225A657B68002253
:101AB80083F83420012352E07B681B681A687B682E
:101AC8001B6822F016021A607B681B685A697B68DB
:101AD8001B6822F080025A617B681B6C002B03D1C3
:101AE8007B689B6C002B07D07B681B681A687B6837
:101AF8001B6822F008021A607B681B681A687B68FA
:101B08001B6822F001021A6013E0FFF77BFE024611
:101B1800BB68D31A052B0CD97B6820225A657B68D1
:101B2800032283F835207B68002283F834200323BE
:101B380015E07B681B681B6803F00103002BE4D1E8
:101B48007B68DB6D3F229A40FB689A607B680122C4
:101B580083F835207B68002283F834200023184658
:101B68001037BD4680BD80B483B000AF78607B6815
:101B780093F83530DBB2022B04D07B6880225A659B
:101B880001230CE07B68052283F835207B681B68FD
:101B98001A687B681B6822F001021A600023184645
:101BA8000C37BD465DF8047B7047000080B489B0EF
:101BB80000AF7860396000237B6100233B6100231C
:101BC800BB610023FB6159E10122FB6902FA03F3BF
:101BD8007B613B681B687A6913403B613A697B69A2
:101BE8009A4240F048813B685B6803F00303012B8D
:101BF80005D03B685B6803F00303022B30D17B6898
:101C08009B68BB61FB695B00032202FA03F3DB43B9
:101C1800BA691340BB613B68DA68FB695B0002FA8A
:101C280003F3BA691343BB617B68BA699A607B683E
:101C38005B68BB610122FB6902FA03F3DB43BA6903
:101C48001340BB613B685B681B0903F00102FB6939
:101C580002FA03F3BA691343BB617B68BA695A6035
:101C68003B685B6803F00303032B17D07B68DB68D2
:101C7800BB61FB695B00032202FA03F3DB43BA6929
:101C88001340BB613B689A68FB695B0002FA03F387
:101C9800BA691343BB617B68BA69DA603B685B6801
:101CA80003F00303022B23D1FB69DA087B680832AF
:101CB80053F82230BB61FB6903F007039B000F2236
:101CC80002FA03F3DB43BA691340BB613B681A6944
:101CD800FB6903F007039B0002FA03F3BA69134395
:101CE800BB61FB69DA087B680832B96943F82210DE
:101CF8007B681B68BB61FB695B00032202FA03F384
:101D0800DB43BA691340BB613B685B6803F00302BD
:101D1800FB695B0002FA03F3BA691343BB617B6892
:101D2800BA691A603B685B6803F44033002B00F023
:101D3800A2800023FB60574B5B6C564A43F48043F8
:101D48005364544B5B6C03F48043FB60FB68524A5A
:101D5800FB699B08023352F82330BB61FB6903F02F
:101D680003039B000F2202FA03F3DB43BA69134013
:101D7800BB617B68494A934219D07B68484A9342C1
:101D880013D07B68474A93420DD07B68464A9342FA
:101D980007D07B68454A934201D1042308E0072312
:101DA80006E0032304E0022302E0012300E000230D
:101DB800FA6902F0030292009340BA691343BB61C7
:101DC8003549FB699B080233BA6941F82320384B2F
:101DD8009B68BB613B69DB43BA691340BB613B68E5
:101DE8005B6803F48013002B03D0BA693B69134383
:101DF800BB612F4ABB6993602D4BDB68BB613B69B4
:101E0800DB43BA691340BB613B685B6803F40013AA
:101E1800002B03D0BA693B691343BB61244ABB69F1
:101E2800D360234B5B68BB613B69DB43BA691340F2
:101E3800BB613B685B6803F40033002B03D0BA69CD
:101E48003B691343BB611A4ABB695360184B1B6853
:101E5800BB613B69DB43BA691340BB613B685B68A4
:101E680003F48033002B03D0BA693B691343BB6189
:101E78000F4ABB691360FB690133FB61FB690F2BD8
:101E88007FF6A2AE00BF00BF2437BD465DF8047BD5
:101E9800704700BF0038024000380140000002408F
:101EA8000004024000080240000C024000100240FA
:101EB800003C014080B485B000AF78600B467B8061
:101EC8007B681A697B881340002B02D00123FB73BF
:101ED80001E00023FB73FB7B18461437BD465DF811
:101EE800047B704780B483B000AF78600B467B807A
:101EF80013467B707B78002B03D07A887B689A61C5
:101F080003E07B881A047B689A6100BF0C37BD46E2
:101F18005DF8047B704780B485B000AF78600B46ED
:101F28007B807B685B69FB607A88FB6813401A04D6
:101F3800FB68D9437B880B401A437B689A6100BFD2
:101F48001437BD465DF8047B7047000080B582B049
:101F580000AF0346FB80084B5A69FB881340002BEF
:101F680006D0054AFB885361FB881846FFF720FA1C
:101F780000BF0837BD4680BD003C014080B586B033
:101F880000AF78607B68002B01D1012367E27B6892
:101F98001B6803F00103002B75D0884B9B6803F086
:101FA8000C03042B0CD0854B9B6803F00C03082B07
:101FB80012D1824B5B6803F48003B3F5800F0BD119
:101FC8007E4B1B6803F40033002B5BD07B685B6897
:101FD800002B57D1012342E27B685B68B3F5803F51
:101FE80006D1764B1B68754A43F4803313601DE0B5
:101FF8007B685B68B3F5A02F0CD1704B1B686F4AE8
:1020080043F4802313606D4B1B686C4A43F48033A0
:1020180013600BE0694B1B68684A23F48033136034
:10202800664B1B68654A23F4802313607B685B68F2
:10203800002B13D0FFF7E6FB386108E0FFF7E2FB5F
:1020480002463B69D31A642B01D9032307E25B4B91
:102058001B6803F40033002BF0D014E0FFF7D2FB29
:10206800386108E0FFF7CEFB02463B69D31A642BC0
:1020780001D90323F3E1514B1B6803F40033002B10
:10208800F0D100E000BF7B681B6803F00203002B5F
:1020980063D04A4B9B6803F00C03002B0BD0474BD3
:1020A8009B6803F00C03082B1CD1444B5B6803F4BA
:1020B8008003002B16D1414B1B6803F00203002B51
:1020C80005D07B68DB68012B01D00123C7E13B4BBE
:1020D8001B6823F0F8027B681B69DB003749134350
:1020E8000B603AE07B68DB68002B20D0344B012280
:1020F8001A60FFF787FB386108E0FFF783FB0246A9
:102108003B69D31A022B01D90323A8E12B4B1B6887
:1021180003F00203002BF0D0284B1B6823F0F802D1
:102128007B681B69DB00254913430B6015E0244BD2
:1021380000221A60FFF766FB386108E0FFF762FBD0
:1021480002463B69D31A022B01D9032387E11B4BB3
:102158001B6803F00203002BF0D17B681B6803F0B7
:102168000803002B36D07B685B69002B16D0154B13
:1021780001221A60FFF746FB386108E0FFF742FBCF
:1021880002463B69D31A022B01D9032367E10B4BA3
:102198005B6F03F00203002BF0D01BE0094B002219
:1021A8001A60FFF72FFB38610EE0FFF72BFB0246A2
:1021B8003B69D31A022B07D9032350E100380240A8
:1021C80000004742800E4742884B5B6F03F00203D2
:1021D800002BEAD17B681B6803F00403002B00F096
:1021E80097800023FB75814B1B6C03F08053002BF9
:1021F8000FD10023BB607D4B1B6C7C4A43F080539E
:1022080013647A4B1B6C03F08053BB60BB680123DB
:10221800FB75774B1B6803F48073002B18D1744B44
:102228001B68734A43F480731360FFF7EBFA386155
:1022380008E0FFF7E7FA02463B69D31A022B01D9F7
:1022480003230CE16A4B1B6803F48073002BF0D066
:102258007B689B68012B06D1644B1B6F634A43F074
:10226800010313671CE07B689B68052B0CD15F4B4F
:102278001B6F5E4A43F0040313675C4B1B6F5B4A9A
:1022880043F0010313670BE0584B1B6F574A23F0C9
:1022980001031367554B1B6F544A23F0040313675C
:1022A8007B689B68002B15D0FFF7ACFA38610AE011
:1022B800FFF7A8FA02463B69D31A41F288329342E3
:1022C80001D90323CBE0494B1B6F03F00203002B1A
:1022D800EED014E0FFF796FA38610AE0FFF792FAB9
:1022E80002463B69D31A41F28832934201D903234B
:1022F800B5E03E4B1B6F03F00203002BEED1FB7DD4
:10230800012B05D1394B1B6C384A23F080531364D9
:102318007B689B69002B00F0A180344B9B6803F01D
:102328000C03082B5CD07B689B69022B41D1314B95
:1023380000221A60FFF766FA386108E0FFF762FAD0
:1023480002463B69D31A022B01D9032387E0274BA6
:102358001B6803F00073002BF0D17B68DA697B6897
:102368001B6A1A437B685B6A9B011A437B689B6AFA
:102378005B08013B1B041A437B68DB6A1B061B498D
:1023880013434B601B4B01221A60FFF73BFA38617D
:1023980008E0FFF737FA02463B69D31A022B01D946
:1023A80003235CE0114B1B6803F00073002BF0D093
:1023B80054E0104B00221A60FFF724FA386108E055
:1023C800FFF720FA02463B69D31A022B01D90323EF
:1023D80045E0064B1B6803F00073002BF0D13DE08D
:1023E8007B689B69012B07D1012338E00038024044
:1023F80000700040600047421B4B5B68FB607B68D5
:102408009B69012B28D0FB6803F480027B68DB6999
:102418009A4221D1FB6803F03F027B681B6A9A420B
:102428001AD1FA6847F6C07313407A68526A920163
:10243800934211D1FB6803F440327B689B6A5B08C6
:10244800013B1B049A4207D1FB6803F070627B686A
:10245800DB6A1B069A4201D0012300E000231846DC
:102468001837BD4680BD00BF0038024080B584B033
:1024780000AF786039607B68002B01D10123CCE084
:10248800684B1B6803F007033A689A420CD9654BFE
:102498003A68D2B21A70634B1B6803F007033A68B4
:1024A8009A4201D00123B8E07B681B6803F002035D
:1024B800002B20D07B681B6803F00403002B05D099
:1024C800594B9B68584A43F4E05393607B681B68F8
:1024D80003F00803002B05D0534B9B68524A43F482
:1024E80060439360504B9B6823F0F0027B689B68C5
:1024F8004D4913438B607B681B6803F00103002B75
:1025080044D07B685B68012B07D1474B1B6803F4F9
:102518000033002B19D101237FE07B685B68022B15
:1025280003D07B685B68032B07D13F4B1B6803F024
:102538000073002B09D101236FE03B4B1B6803F0AC
:102548000203002B01D1012367E0374B9B6823F07E
:1025580003027B685B68344913438B60FFF752F9C9
:10256800F8600AE0FFF74EF90246FB68D31A41F219
:102578008832934201D903234FE02B4B9B6803F029
:102588000C027B685B689B009A42EBD1254B1B6869
:1025980003F007033A689A420CD2224B3A68D2B247
:1025A8001A70204B1B6803F007033A689A4201D05F
:1025B800012332E07B681B6803F00403002B08D07A
:1025C800194B9B6823F4E0527B68DB681649134378
:1025D8008B607B681B6803F00803002B09D0124B43
:1025E8009B6823F460427B681B69DB000E49134338
:1025F8008B6000F021F802460B4B9B681B0903F027
:102608000F030A49CB5C22FA03F3094A1360094B0A
:102618001B681846FFF7B2F8002318461037BD4666
:1026280080BD00BF003C02400038024070460008F0
:1026380060000020640000202DE9B04F90B000AF8A
:1026480000237B630023FB6300233B630023BB63FE
:10265800594B9B6803F00C03082B0DD0082B00F294
:10266800A180002B02D0042B03D09BE0534BBB630B
:102678009BE0534BBB6398E04F4B5B6803F03F0311
:102688007B634D4B5B6803F48003002B28D04A4BD7
:102698005B689B0900223B627A623B6AC3F30800CD
:1026A8000021474B03FB01F2002300FB03F3134413
:1026B800434AA0FB0212FA620A46BA62FA6A134453
:1026C800FB627B6B0022BB61FA61D7E90623D7E97D
:1026D8000A01FEF76BF902460B461346FB6353E00B
:1026E800354B5B689B0900223B617A613B69C3F308
:1026F800080A4FF0000B52465B464FF000004FF0BF
:102708000001590141EAD261500102460B46B2EB81
:102718000A0863EB0B094FF000024FF000034FEA81
:10272800891343EA98634FEA8812B2EB080463EB13
:1027380009054FF000024FF00003EB0043EA547321
:10274800E20014461D4614EB0A033B6045EB0B03FD
:102758007B604FF000024FF00003D7E9004529469F
:102768008B02214643EA915321468A0210461946B4
:102778007B6B0022BB60FA60D7E90223FEF716F9EB
:1027880002460B461346FB630B4B5B681B0C03F0BE
:10279800030301335B003B63FA6B3B6BB2FBF3F360
:1027A800BB6302E0054BBB6300BFBB6B18464037F9
:1027B800BD46BDE8B08F00BF003802400024F400D9
:1027C80040787D0180B400AF034B1B681846BD46B6
:1027D8005DF8047B704700BF6000002080B500AF43
:1027E800FFF7F0FF0246054B9B689B0A03F00703BF
:1027F8000349CB5C22FA03F3184680BD0038024037
:102808008046000880B500AFFFF7DCFF0246054BA5
:102818009B685B0B03F007030349CB5C22FA03F3C5
:10282800184680BD003802408046000880B582B056
:1028380000AF78607B68002B01D1012341E07B6801
:1028480093F83D30DBB2002B06D17B68002283F879
:102858003C207868FEF72EFE7B68022283F83D2034
:102868007B681A687B6804331946104600F012FB2F
:102878007B68012283F846207B68012283F83E208A
:102888007B68012283F83F207B68012283F840207F
:102898007B68012283F841207B68012283F842206B
:1028A8007B68012283F843207B68012283F8442057
:1028B8007B68012283F845207B68012283F83D204C
:1028C800002318460837BD4680BD000080B485B097
:1028D80000AF78607B6893F83D30DBB2012B01D004
:1028E80001233CE07B68022283F83D207B681B685B
:1028F8001E4A934218D07B681B68B3F1804F13D0EF
:102908007B681B681A4A93420ED07B681B68194A79
:10291800934209D07B681B68174A934204D07B68AE
:102928001B68164A934211D17B681B689B6803F0A9
:102938000703FB60FB68062B10D07B681B681A68CE
:102948007B681B6842F001021A6007E07B681B681D
:102958001A687B681B6842F001021A600023184657
:102968001437BD465DF8047B704700BF0000014086
:102978000004004000080040000C004000400140F6
:1029880080B582B000AF78607B68002B01D101234D
:1029980041E07B6893F83D30DBB2002B06D17B68C1
:1029A800002283F83C207868FEF7A6FD7B680222A7
:1029B80083F83D207B681A687B6804331946104603
:1029C80000F068FA7B68012283F846207B680122C0
:1029D80083F83E207B68012283F83F207B68012230
:1029E80083F840207B68012283F841207B6801221C
:1029F80083F842207B68012283F843207B68012208
:102A080083F844207B68012283F845207B680122F3
:102A180083F83D20002318460837BD4680BD0000D6
:102A280080B584B000AF786039603B68002B09D16D
:102A38007B6893F83E30DBB2012B14BF01230023DF
:102A4800DBB222E03B68042B09D17B6893F83F3066
:102A5800DBB2012B14BF01230023DBB215E03B6876
:102A6800082B09D17B6893F84030DBB2012B14BFE7
:102A780001230023DBB208E07B6893F84130DBB226
:102A8800012B14BF01230023DBB2002B01D001234B
:102A980068E03B68002B04D17B68022283F83E2063
:102AA80013E03B68042B04D17B68022283F83F20A3
:102AB8000BE03B68082B04D17B68022283F8402096
:102AC80003E07B68022283F841207B681B680122AF
:102AD8003968184600F084FC7B681B68234A9342D7
:102AE80007D17B681B685A6C7B681B6842F40042FC
:102AF8005A647B681B681D4A934218D07B681B6820
:102B0800B3F1804F13D07B681B68194A93420ED0EB
:102B18007B681B68174A934209D07B681B68164A72
:102B2800934204D07B681B68144A934211D17B6896
:102B38001B689B6803F00703FB60FB68062B10D03B
:102B48007B681B681A687B681B6842F001021A6080
:102B580007E07B681B681A687B681B6842F0010203
:102B68001A60002318461037BD4680BD000001409A
:102B78000004004000080040000C004000400140F4
:102B880080B586B000AFF860B9607A600023FB7545
:102B9800FB6893F83C30012B01D10223AEE0FB68BF
:102BA800012283F83C207B680C2B00F29F8001A255
:102BB80052F823F0F12B0008F52C0008F52C00083A
:102BC800F52C0008312C0008F52C0008F52C00081D
:102BD800F52C0008732C0008F52C0008F52C0008CB
:102BE800F52C0008B32C0008FB681B68B968184668
:102BF80000F0D0F9FB681B689A69FB681B6842F013
:102C080008029A61FB681B689A69FB681B6822F0D6
:102C180004029A61FB681B689969BB681A69FB68BA
:102C28001B680A439A6164E0FB681B68B968184628
:102C380000F016FAFB681B689A69FB681B6842F487
:102C480000629A61FB681B689A69FB681B6822F43A
:102C580080629A61FB681B689969BB681B691A02E4
:102C6800FB681B680A439A6143E0FB681B68B96804
:102C7800184600F061FAFB681B68DA69FB681B6894
:102C880042F00802DA61FB681B68DA69FB681B68B6
:102C980022F00402DA61FB681B68D969BB681A690B
:102CA800FB681B680A43DA6123E0FB681B68B968A4
:102CB800184600F0ABFAFB681B68DA69FB681B680A
:102CC80042F40062DA61FB681B68DA69FB681B681A
:102CD80022F48062DA61FB681B68D969BB681B69EA
:102CE8001A02FB681B680A43DA6102E00123FB75DC
:102CF80000BFFB68002283F83C20FB7D184618378C
:102D0800BD4680BD80B584B000AF786039600023CF
:102D1800FB737B6893F83C30012B01D10223B4E0AC
:102D28007B68012283F83C207B68022283F83D20DF
:102D38007B681B689B68BB60BB6823F07703BB603C
:102D4800BB6823F47F43BB607B681B68BA689A60E2
:102D58003B681B68B3F5005F3ED0B3F5005F00F237
:102D68008780B3F5805F00F08680B3F5805F7FD8F9
:102D7800702B1AD0702B7BD8602B50D0602B77D853
:102D8800502B3CD0502B73D8402B58D0402B6FD8A9
:102D9800302B64D0302B6BD8202B60D0202B67D8F9
:102DA800002B5CD0102B5AD062E07B6818683B6817
:102DB80099683B685A683B68DB6800F0F1FA7B6801
:102DC8001B689B68BB60BB6843F07703BB607B688C
:102DD8001B68BA689A604FE07B6818683B68996816
:102DE8003B685A683B68DB6800F0DAFA7B681B6866
:102DF8009A687B681B6842F480429A603CE07B6872
:102E080018683B6859683B68DB681A4600F04EFA58
:102E18007B681B685021184600F0A7FA2CE07B68F5
:102E280018683B6859683B68DB681A4600F06DFA19
:102E38007B681B686021184600F097FA1CE07B68E5
:102E480018683B6859683B68DB681A4600F02EFA38
:102E58007B681B684021184600F087FA0CE07B6805
:102E68001A683B681B681946104600F07EFA03E0B2
:102E78000123FB7300E000BF7B68012283F83D203B
:102E88007B68002283F83C20FB7B18461037BD4640
:102E980080BD000080B485B000AF786039607B6881
:102EA8001B68FB607B68344A93420FD07B68B3F1A0
:102EB800804F0BD07B68314A934207D07B68304AF9
:102EC800934203D07B682F4A934208D1FB6823F0D2
:102ED8007003FB603B685B68FA681343FB607B68C0
:102EE800254A93421BD07B68B3F1804F17D07B688B
:102EF800224A934213D07B68214A93420FD07B68C1
:102F0800204A93420BD07B681F4A934207D07B68C4
:102F18001E4A934203D07B681D4A934208D1FB683E
:102F280023F44073FB603B68DB68FA681343FB607B
:102F3800FB6823F080023B685B691343FB607B6896
:102F4800FA681A603B689A687B68DA623B681A68B4
:102F58007B689A627B68084A934203D13B681A6986
:102F68007B681A637B6801225A6100BF1437BD462B
:102F78005DF8047B704700BF00000140000400407A
:102F880000080040000C004000400140004401409F
:102F98000048014080B487B000AF786039607B6832
:102FA8001B6A23F001027B681A627B681B6A7B61DB
:102FB8007B685B683B617B689B69FB60FB6823F00F
:102FC8007003FB60FB6823F00303FB603B681B682E
:102FD800FA681343FB607B6923F002037B613B685B
:102FE8009B687A6913437B617B681C4A93420CD1C6
:102FF8007B6923F008037B613B68DB687A691343CC
:103008007B617B6923F004037B617B68134A9342ED
:1030180011D13B6923F480733B613B6923F400734E
:103028003B613B685B693A6913433B613B689B6959
:103038003A6913433B617B683A695A607B68FA686E
:103048009A613B685A687B685A637B687A691A6236
:1030580000BF1C37BD465DF8047B70470000014087
:1030680080B487B000AF786039607B681B6A23F052
:1030780010027B681A627B681B6A7B617B685B68ED
:103088003B617B689B69FB60FB6823F4E043FB6062
:10309800FB6823F44073FB603B681B681B02FA68FB
:1030A8001343FB607B6923F020037B613B689B68CB
:1030B8001B017A6913437B617B681E4A93420DD1D9
:1030C8007B6923F080037B613B68DB681B017A69BD
:1030D80013437B617B6923F040037B617B68154A5E
:1030E800934213D13B6923F480633B613B6923F42A
:1030F80000633B613B685B699B003A6913433B6132
:103108003B689B699B003A6913433B617B683A695A
:103118005A607B68FA689A613B685A687B689A6368
:103128007B687A691A6200BF1C37BD465DF8047B6C
:10313800704700BF0000014080B487B000AF7860DE
:1031480039607B681B6A23F480727B681A627B682B
:103158001B6A7B617B685B683B617B68DB69FB6042
:10316800FB6823F07003FB60FB6823F00303FB603C
:103178003B681B68FA681343FB607B6923F40073A0
:103188007B613B689B681B027A6913437B617B68A0
:103198001D4A93420DD17B6923F400637B613B6830
:1031A800DB681B027A6913437B617B6923F48063C4
:1031B8007B617B68144A934213D13B6923F48053A3
:1031C8003B613B6923F400533B613B685B691B012E
:1031D8003A6913433B613B689B691B013A69134396
:1031E8003B617B683A695A607B68FA68DA613B68D8
:1031F8005A687B68DA637B687A691A6200BF1C3791
:10320800BD465DF8047B70470000014080B487B07C
:1032180000AF786039607B681B6A23F480527B6852
:103228001A627B681B6A3B617B685B687B617B68B1
:10323800DB69FB60FB6823F4E043FB60FB6823F475
:103248004073FB603B681B681B02FA681343FB6012
:103258003B6923F400533B613B689B681B033A6955
:1032680013433B617B68104A934209D17B6923F47D
:1032780080437B613B685B699B017A6913437B618F
:103288007B687A695A607B68FA68DA613B685A68D1
:103298007B681A647B683A691A6200BF1C37BD46AE
:1032A8005DF8047B704700BF0000014080B487B020
:1032B80000AFF860B9607A60FB681B6A7B61FB68E5
:1032C8001B6A23F00102FB681A62FB689B693B6179
:1032D8003B6923F0F0033B617B681B013A691343A8
:1032E8003B617B6923F00A037B617A69BB681343FE
:1032F8007B61FB683A699A61FB687A691A6200BF68
:103308001C37BD465DF8047B704780B487B000AFBA
:10331800F860B9607A60FB681B6A23F01002FB68EA
:103328001A62FB689B697B61FB681B6A3B617B696E
:1033380023F470437B617B681B037A6913437B61C9
:103348003B6923F0A0033B61BB681B013A69134347
:103358003B61FB687A699A61FB683A691A6200BF47
:103368001C37BD465DF8047B704780B485B000AF5C
:10337800786039607B689B68FB60FB6823F07003AA
:10338800FB603A68FB68134343F00703FB607B6804
:10339800FA689A6000BF1437BD465DF8047B704731
:1033A80080B487B000AFF860B9607A603B60FB68B2
:1033B8009B687B617B6923F47F437B613B681A02CE
:1033C8007B681A43BB6813437A6913437B61FB68C4
:1033D8007A699A6000BF1C37BD465DF8047B704768
:1033E80080B487B000AFF860B9607A60BB6803F05A
:1033F8001F03012202FA03F37B61FB681A6A7B69E7
:10340800DB431A40FB681A62FB681A6ABB6803F060
:103418001F03796801FA03F31A43FB681A6200BFB5
:103428001C37BD465DF8047B7047000080B485B04A
:1034380000AF786039607B6893F83C30012B01D18C
:10344800022350E07B68012283F83C207B6802223B
:1034580083F83D207B681B685B68FB607B681B68A2
:103468009B68BB60FB6823F07003FB603B681B68CC
:10347800FA681343FB607B681B68FA685A607B68CC
:103488001B681C4A934218D07B681B68B3F1804FB5
:1034980013D07B681B68184A93420ED07B681B6860
:1034A800164A934209D07B681B68154A934204D098
:1034B8007B681B68134A93420CD1BB6823F08003D6
:1034C800BB603B685B68BA681343BB607B681B687A
:1034D800BA689A607B68012283F83D207B680022E5
:1034E80083F83C20002318461437BD465DF8047B5A
:1034F800704700BF00000140000400400008004081
:10350800000C00400040014080B582B000AF7860F8
:103518007B68002B01D101233FE07B6893F83D30A5
:10352800DBB2002B06D17B68002283F83C20786848
:10353800FEF73AF87B68242283F83D207B681B68F5
:10354800DA687B681B6822F40052DA60786800F059
:10355800DFFD7B681B681A697B681B6822F4904250
:103568001A617B681B685A697B681B6822F02A020B
:103578005A617B681B68DA687B681B6842F40052F2
:10358800DA607B6800221A647B68202283F83D2079
:103598007B68202283F83E20002318460837BD4662
:1035A80080BD80B58AB002AFF860B9603B60134651
:1035B800FB8000237B61FB6893F83D30DBB2202B56
:1035C8007CD1BB68002B02D0FB88002B01D10123E2
:1035D80075E0FB6893F83C30012B01D102236EE0C3
:1035E800FB68012283F83C20FB6800221A64FB6810
:1035F800212283F83D20FEF705F97861FB68FA88F7
:103608009A84FB68FA88DA84FB689B68B3F5805F64
:1036180008D1FB681B69002B04D10023FB61BB6840
:10362800BB6103E0BB68FB610023BB61FB68002250
:1036380083F83C202AE03B6800937B6900228021C4
:10364800F86800F01FFB0346002B01D0032336E087
:10365800FB69002B0BD1BB691B881A46FB681B68EA
:10366800C2F308025A60BB690233BB6107E0FB6919
:103678001A78FB681B685A60FB690133FB61FB68B9
:10368800DB8C9BB2013B9AB2FB68DA84FB68DB8C6B
:103698009BB2002BCFD13B6800937B69002240216D
:1036A800F86800F0EFFA0346002B01D0032306E088
:1036B800FB68202283F83D20002300E002231846FF
:1036C8002037BD4680BD80B584B000AFF860B960D2
:1036D8001346FB80FB6893F83E30DBB2202B1DD1EC
:1036E800BB68002B02D0FB88002B01D1012316E018
:1036F800FB6893F83C30012B01D102230FE0FB68F3
:10370800012283F83C20FB6800221A63FB881A46D2
:10371800B968F86800F024FB034600E00223184665
:103728001037BD4680BD000080B5BAB000AF7860E4
:103738007B681B681B68C7F8E4307B681B68DB681C
:10374800C7F8E0307B681B685B69C7F8DC3000238A
:10375800C7F8D8300023C7F8D430D7F8E43003F0DE
:103768000F03C7F8D830D7F8D830002B0FD1D7F8C7
:10377800E43003F02003002B09D0D7F8E03003F041
:103788002003002B03D0786800F007FC56E2D7F836
:10379800D830002B00F0DE80D7F8DC3003F00103CE
:1037A800002B06D1D7F8E03003F49073002B00F01B
:1037B800D180D7F8E43003F00103002B0BD0D7F801
:1037C800E03003F48073002B05D07B681B6C43F05A
:1037D80001027B681A64D7F8E43003F00403002B75
:1037E8000BD0D7F8DC3003F00103002B05D07B6841
:1037F8001B6C43F002027B681A64D7F8E43003F0CC
:103808000203002B0BD0D7F8DC3003F00103002BA8
:1038180005D07B681B6C43F004027B681A64D7F8F8
:10382800E43003F00803002B11D0D7F8E03003F0A0
:103838002003002B05D1D7F8DC3003F00103002B5F
:1038480005D07B681B6C43F008027B681A647B68B0
:103858001B6C002B00F0ED81D7F8E43003F0200357
:10386800002B08D0D7F8E03003F02003002B02D05B
:10387800786800F092FB7B681B685B6903F0400383
:10388800402B0CBF01230023DBB2C7F8D4307B6880
:103898001B6C03F00803002B03D1D7F8D430002B9E
:1038A8004FD0786800F09AFA7B681B685B6903F070
:1038B8004003402B41D17B681B681433C7F89C3008
:1038C800D7F89C3053E8003FC7F89830D7F89830BD
:1038D80023F04003C7F8D0307B681B681433D7F84F
:1038E800D020C7F8A820C7F8A430D7F8A410D7F874
:1038F800A82041E80023C7F8A030D7F8A030002B53
:10390800D9D17B689B6B002B13D07B689B6B7D4A5E
:103918001A657B689B6B1846FEF725F90346002B52
:1039280016D07B689B6B1B6D7A68926B1046984724
:103938000EE0786800F090F90AE0786800F08CF9F9
:1039480006E0786800F088F97B6800221A6470E164
:1039580000BF6EE17B681B6B012B40F04A81D7F8F2
:10396800E43003F01003002B00F04381D7F8E03077
:1039780003F01003002B00F03C810023BB607B6840
:103988001B681B68BB607B681B685B68BB60BB68A7
:103998007B681B685B6903F04003402B40F0B480F0
:1039A8007B689B6B1B685B68A7F8BE30B7F8BE30B6
:1039B800002B00F040817B689B8DB7F8BE209A42AF
:1039C80080F039817B68B7F8BE20DA857B689B6B0D
:1039D800DB69B3F5807F00F088807B681B680C3357
:1039E800C7F88830D7F8883053E8003FC7F88430E4
:1039F800D7F8843023F48073C7F8B8307B681B6825
:103A08000C33D7F8B820C7F89420C7F89030D7F807
:103A18009010D7F8942041E80023C7F88C30D7F8E5
:103A28008C30002BD9D17B681B6814337B677B6F84
:103A380053E8003F3B673B6F23F00103C7F8B430FE
:103A48007B681B681433D7F8B420C7F88020FB675D
:103A5800F96FD7F8802041E80023BB67BB6F002BC4
:103A6800E1D17B681B6814333B663B6E53E8003F2B
:103A7800FB65FB6D23F04003C7F8B0307B681B681B
:103A88001433D7F8B020FA66BB66B96EFA6E41E80F
:103A980000237B667B6E002BE3D17B68202283F8B2
:103AA8003E207B6800221A637B681B680C33FB642A
:103AB800FB6C53E8003FBB64BB6C23F01003C7F8F2
:103AC800AC307B681B680C33D7F8AC20BA657B65D3
:103AD800796DBA6D41E800233B653B6D002BE3D15E
:103AE8007B689B6B1846FDF7CEFF7B689A8D7B68D9
:103AF800DB8D9BB2D31A9BB21946786800F0B6F8F2
:103B080099E000BFAB3E00087B689A8D7B68DB8D2F
:103B18009BB2D31AA7F8CE307B68DB8D9BB2002B03
:103B280000F08B80B7F8CE30002B00F086807B68E1
:103B38001B680C33BB63BB6B53E8003F7B637B6B39
:103B480023F49073C7F8C8307B681B680C33D7F828
:103B5800C8207A643B64396C7A6C41E80023FB63C3
:103B6800FB6B002BE3D17B681B6814337B627B6A99
:103B780053E8003F3B623B6A23F00103C7F8C430B7
:103B88007B681B681433D7F8C4203A63FB62F96A70
:103B98003A6B41E80023BB62BB6A002BE3D17B6828
:103BA800202283F83E207B6800221A637B681B680A
:103BB8000C333B613B6953E8003FFB60FB6823F033
:103BC8001003C7F8C0307B681B680C33D7F8C020D7
:103BD800FA61BB61B969FA6941E800237B617B69D5
:103BE800002BE3D1B7F8CE301946786800F03EF8DC
:103BF80023E0D7F8E43003F08003002B09D0D7F88E
:103C0800E03003F08003002B03D0786800F05DF902
:103C180014E0D7F8E43003F04003002B0ED0D7F8B7
:103C2800E03003F04003002B08D0786800F09DF9DD
:103C380004E000BF02E000BF00E000BFE837BD4677
:103C480080BD00BF80B483B000AF786000BF0C3780
:103C5800BD465DF8047B704780B483B000AF7860E0
:103C680000BF0C37BD465DF8047B704780B483B055
:103C780000AF78600B467B8000BF0C37BD465DF80F
:103C8800047B704780B590B000AFF860B9603B60C6
:103C98001346FB7150E0BB6CB3F1FF3F4CD0BB6CDB
:103CA800002B07D0FDF7AEFD02463B68D31ABA6C6D
:103CB8009A4241D2FB681B680C33BB62BB6A53E86B
:103CC800003F7B627B6A23F4D073FB63FB681B684D
:103CD8000C33FA6B7A633B63396B7A6B41E80023E8
:103CE800FB62FB6A002BE5D1FB681B6814337B6120
:103CF8007B6953E8003F3B613B6923F00103BB63E9
:103D0800FB681B681433BA6B3A62FB61F9693A6A5B
:103D180041E80023BB61BB69002BE5D1FB68202289
:103D280083F83D20FB68202283F83E20FB680022B0
:103D380083F83C2003230FE0FB681B681A68BB6804
:103D48001340BA689A420CBF01230023DBB21A461B
:103D5800FB799A429FD0002318464037BD4680BD64
:103D680080B485B000AFF860B9601346FB80FB688B
:103D7800BA689A62FB68FA889A85FB68FA88DA85D5
:103D8800FB6800221A64FB68222283F83E20FB6845
:103D9800002283F83C20FB681B69002B07D0FB68D6
:103DA8001B68DA68FB681B6842F48072DA60FB689B
:103DB8001B685A69FB681B6842F001025A61FB687C
:103DC8001B68DA68FB681B6842F02002DA6000238F
:103DD80018461437BD465DF8047B704780B495B02B
:103DE80000AF78607B681B680C337B637B6B53E8A0
:103DF800003F3B633B6B23F49073FB647B681B6859
:103E08000C33FA6C3A64FB63F96B3A6C41E80023B3
:103E1800BB63BB6B002BE5D17B681B6814333B622B
:103E28003B6A53E8003FFB61FB6923F00103BB6475
:103E38007B681B681433BA6CFA62BB62B96AFA6AA7
:103E480041E800237B627B6A002BE5D17B681B6B12
:103E5800012B19D17B681B680C33FB60FB6853E8A6
:103E6800003FBB60BB6823F010037B647B681B6862
:103E78000C337A6CBA617B617969BA6941E80023CD
:103E88003B613B69002BE5D17B68202283F83E200B
:103E98007B6800221A6300BF5437BD465DF8047B77
:103EA800704780B584B000AF78607B689B6BFB601F
:103EB800FB680022DA85FB680022DA84F868FFF7DD
:103EC800CBFE00BF1037BD4680BD80B485B000AFC3
:103ED80078607B6893F83D30DBB2212B3ED17B685C
:103EE8009B68B3F5805F14D17B681B69002B10D1E8
:103EF8007B681B6AFB60FB681B881A467B681B682B
:103F0800C2F308025A607B681B6A9A1C7B681A62B3
:103F180008E07B681B6A591C7A6811621A787B680A
:103F28001B685A607B68DB8C9BB2013B9BB27A684A
:103F38001946D184002B0FD17B681B68DA687B682F
:103F48001B6822F08002DA607B681B68DA687B688D
:103F58001B6842F04002DA60002300E002231846A2
:103F68001437BD465DF8047B704780B582B000AF5A
:103F780078607B681B68DA687B681B6822F04002FF
:103F8800DA607B68202283F83D207868FFF75AFEC4
:103F9800002318460837BD4680BD80B58CB000AFF9
:103FA80078607B6893F83E30DBB2222B40F0AB8020
:103FB8007B689B68B3F5805F17D17B681B69002B12
:103FC80013D10023FB627B689B6ABB627B681B681A
:103FD8005B689BB2C3F308039AB2BB6A1A807B681A
:103FE8009B6A9A1C7B689A6226E07B689B6AFB62E4
:103FF8000023BB627B689B68B3F5805F07D07B6852
:104008009B68002B0AD17B681B69002B06D17B6853
:104018001B685B68DAB2FB6A1A7008E07B681B6889
:104028005B68DBB203F07F03DAB2FB6A1A707B6865
:104038009B6A5A1C7B689A627B68DB8D9BB2013B4A
:104048009BB27A681946D185002B5AD17B681B68C8
:10405800DA687B681B6822F02002DA607B681B68DC
:10406800DA687B681B6822F48072DA607B681B68F8
:104078005A697B681B6822F001025A617B6820221A
:1040880083F83E207B681B6B012B35D17B680022AF
:104098001A637B681B680C337B617B6953E8003FBC
:1040A8003B613B6923F010037B627B681B680C3320
:1040B8007A6A3A62FB61F9693A6A41E80023BB61AE
:1040C800BB69002BE5D17B681B681B6803F01003F4
:1040D800102B0AD10023FB607B681B681B68FB6000
:1040E8007B681B685B68FB60FB687B689B8D194677
:1040F8007868FFF7BBFD02E07868FDF787F90023D1
:1041080002E0002300E0022318463037BD4680BD98
:104118002DE9B04FC0B000AFC7F8F400D7F8F430BD
:104128001B681B6923F44050D7F8F430D968D7F8D6
:10413800F4301A6840EA01031361D7F8F4309A683A
:10414800D7F8F4301B691A43D7F8F4305B691A437F
:10415800D7F8F430DB691343C7F8F830D7F8F430F0
:104168001B68DB6823F4164121F00C01D7F8F43002
:104178001A68D7F8F8300B43D360D7F8F4301B68C7
:104188005B6923F44070D7F8F4309969D7F8F430B4
:104198001A6840EA01035361D7F8F4301A688F4B64
:1041A8009A4205D0D7F8F4301A688D4B9A4204D158
:1041B800FEF728FBC7F8FC0003E0FEF70FFBC7F883
:1041C800FC00D7F8F430DB69B3F5004F40F00C8100
:1041D800D7F8FC300022C7F8E830C7F8EC20D7E958
:1041E8003A4522462B469118B9655B41FB65D7E9EC
:1041F8001623214612EB0108294643EB01094FF02B
:1042080000024FF000034FEAC90343EA58734FEA2C
:10421800C80290469946234618EB0303C7F8E030D6
:104228002B4649EB0303C7F8E430D7F8F4305B6852
:104238000022C7F8D830C7F8DC20D7E936120B4679
:10424800DB183B65134642EB03037B65D7E9142370
:10425800D7E93801FCF7AAFB02460B46614BA3FBE2
:1042680002235B091C01D7F8FC300022C7F8D030C4
:10427800C7F8D420D7E9348942464B469118B96427
:104288005B41FB64D7E91223414612EB010A494618
:1042980043EB010B4FF000024FF000034FEACB0352
:1042A80043EA5A734FEACA0292469B4643461AEBC0
:1042B8000303C7F8C8304B464BEB0303C7F8CC30B1
:1042C800D7F8F4305B680022C7F8C030C7F8C420BC
:1042D800D7E930120B46DB183B64134642EB030365
:1042E8007B64D7E91023D7E93201FCF75FFB02466C
:1042F8000B4611463B4BA3FB01235B09642202FBDF
:1043080003F3CB1ADB0003F13202364BA3FB022383
:104318005B095B0003F4F8731C44D7F8FC300022F7
:10432800C7F8B830C7F8BC20D7E92E8942464B46B3
:104338009118B9635B41FB63D7E90E2341465118D5
:10434800396349464B417B634FF000024FF000034D
:10435800D7E90CAB5946CB00514643EA5173514655
:10436800CA0010461946034642469B18C7F8B030A3
:104378004B460A4642EB0303C7F8B430D7F8F4308B
:104388005B680022C7F8A830C7F8AC20D7E92A1222
:104398000B46DB18BB62134642EB0303FB62D7E90B
:1043A8000A23D7E92C01FCF701FB02460B460D4B0B
:1043B800A3FB02135B09642101FB03F3D31ADB009F
:1043C8003233084AA2FB03235B0903F00702D7F83C
:1043D800F4301B6822449A6005E100BF00100140D8
:1043E800001401401F85EB51D7F8FC300022C7F8B4
:1043F800A030C7F8A420D7E9288942464B4691182F
:1044080039625B417B62D7E9082341465418494623
:1044180043EB01054FF000024FF00003EB0043EAC5
:104428005473E20014461D464346E318C7F8983013
:104438004B4645EB0303C7F89C30D7F8F4305B686C
:104448000022C7F89030C7F894204FF000024FF0D0
:104458000003D7E9244529468B00214643EA917396
:1044680021468A00D7E92601FCF7A0FA02460B4646
:10447800604BA3FB02235B091C01D7F8FC30002228
:10448800C7F88830C7F88C20D7E9228942464B46BE
:104498009118B9615B41FB61D7E906234146511880
:1044A800396149464B417B614FF000024FF00003F0
:1044B800D7E904AB5946CB00514643EA51735146FC
:1044C800CA0010461946034642469B18C7F8803072
:1044D8004B460A4642EB0303C7F88430D7F8F4305A
:1044E8005B680022BB67FA674FF000024FF00003D9
:1044F800D7E91E8949468B00414643EA91734146F4
:104508008A00D7E92001FCF751FA02460B46394BDD
:10451800A3FB02135B09642101FB03F3D31A1B01FC
:104528003233344AA2FB03235B0903F0F0031C4433
:10453800D7F8FC3000223B677A67D7E91C894246E6
:104548004B469118B9605B41FB60D7E902234146AD
:104558005118396049464B417B604FF000024FF0DB
:104568000003D7E900AB5946CB00514643EA5173E3
:104578005146CA0010461946034642469B18BB6678
:104588004B460A4642EB0303FB66D7F8F4305B68F8
:1045980000223B667A664FF000024FF00003D7E92D
:1045A800188949468B00414643EA917341468A007F
:1045B800D7E91A01FCF7FAF902460B460D4BA3FBA3
:1045C80002135B09642101FB03F3D31A1B01323385
:1045D800084AA2FB03235B0903F00F02D7F8F43063
:1045E8001B6822449A6000BF07F58077BD46BDE886
:1045F800B08F00BF1F85EB5170B50D4D0D4C641B7E
:10460800A4100026A64209D10B4D0C4C00F020F84E
:10461800641BA4100026A64205D170BD55F8043BC2
:1046280098470136EEE755F8043B98470136F2E71C
:1046380090460008904600089046000894460008F6
:1046480002440346934200D1704703F8011BF9E77F
:10465800F8B500BFF8BC08BC9E467047F8B500BF67
:08466800F8BC08BC9E46704737
:104670000000000000000000010203040607080912
:08468000000000000102030428
:084688005CC3FF7F010000008C
:04469000BD01000860
:044694009901000880
:10469800C40900002A4C52323535473042302A00CE
:1046A8002A4C523235354732353542302A0000001F
:1046B8002A4C52304732353542302A002A56523079
:1046C8004732353542302A002A565232353547307E
:1046D80042302A002A4B486967682A002A4B4D65F0
:1046E8006469756D2A0000002A4B4C6F772A000018
:0C46F8000024F40010000000010000008D
:04000005080016EDEC
:00000001FF
